{
  "contractName": "Publisher",
  "abi": [
    {
      "constant": true,
      "inputs": [],
      "name": "noveltyCoin",
      "outputs": [
        {
          "name": "",
          "type": "address"
        }
      ],
      "payable": false,
      "stateMutability": "view",
      "type": "function"
    },
    {
      "constant": false,
      "inputs": [],
      "name": "renounceOwnership",
      "outputs": [],
      "payable": false,
      "stateMutability": "nonpayable",
      "type": "function"
    },
    {
      "constant": true,
      "inputs": [],
      "name": "owner",
      "outputs": [
        {
          "name": "",
          "type": "address"
        }
      ],
      "payable": false,
      "stateMutability": "view",
      "type": "function"
    },
    {
      "constant": true,
      "inputs": [],
      "name": "isOwner",
      "outputs": [
        {
          "name": "",
          "type": "bool"
        }
      ],
      "payable": false,
      "stateMutability": "view",
      "type": "function"
    },
    {
      "constant": false,
      "inputs": [
        {
          "name": "newOwner",
          "type": "address"
        }
      ],
      "name": "transferOwnership",
      "outputs": [],
      "payable": false,
      "stateMutability": "nonpayable",
      "type": "function"
    },
    {
      "anonymous": false,
      "inputs": [
        {
          "indexed": true,
          "name": "author",
          "type": "address"
        },
        {
          "indexed": false,
          "name": "tokenId",
          "type": "uint256"
        },
        {
          "indexed": false,
          "name": "contentHash",
          "type": "string"
        }
      ],
      "name": "PaperPublished",
      "type": "event"
    },
    {
      "anonymous": false,
      "inputs": [
        {
          "indexed": true,
          "name": "voter",
          "type": "address"
        },
        {
          "indexed": false,
          "name": "_paperHash",
          "type": "string"
        }
      ],
      "name": "Voted",
      "type": "event"
    },
    {
      "anonymous": false,
      "inputs": [
        {
          "indexed": true,
          "name": "previousOwner",
          "type": "address"
        },
        {
          "indexed": true,
          "name": "newOwner",
          "type": "address"
        }
      ],
      "name": "OwnershipTransferred",
      "type": "event"
    },
    {
      "constant": true,
      "inputs": [
        {
          "name": "_contentHash",
          "type": "string"
        }
      ],
      "name": "getPaper",
      "outputs": [
        {
          "name": "author",
          "type": "address"
        },
        {
          "name": "contentHash",
          "type": "string"
        },
        {
          "name": "voteWeight",
          "type": "uint256"
        }
      ],
      "payable": false,
      "stateMutability": "view",
      "type": "function"
    },
    {
      "constant": false,
      "inputs": [
        {
          "name": "_contentHash",
          "type": "string"
        }
      ],
      "name": "publish",
      "outputs": [],
      "payable": false,
      "stateMutability": "nonpayable",
      "type": "function"
    },
    {
      "constant": false,
      "inputs": [
        {
          "name": "_contentHash",
          "type": "string"
        },
        {
          "name": "tokenId",
          "type": "uint256"
        }
      ],
      "name": "addVote",
      "outputs": [],
      "payable": false,
      "stateMutability": "nonpayable",
      "type": "function"
    },
    {
      "constant": true,
      "inputs": [
        {
          "name": "_contentHash",
          "type": "string"
        }
      ],
      "name": "getAuthor",
      "outputs": [
        {
          "name": "",
          "type": "address"
        }
      ],
      "payable": false,
      "stateMutability": "view",
      "type": "function"
    },
    {
      "constant": true,
      "inputs": [
        {
          "name": "user",
          "type": "address"
        }
      ],
      "name": "hasPublishedPapers",
      "outputs": [
        {
          "name": "",
          "type": "bool"
        }
      ],
      "payable": false,
      "stateMutability": "view",
      "type": "function"
    },
    {
      "constant": false,
      "inputs": [
        {
          "name": "_contractAddress",
          "type": "address"
        }
      ],
      "name": "setNoveltyCoin",
      "outputs": [],
      "payable": false,
      "stateMutability": "nonpayable",
      "type": "function"
    }
  ],
  "bytecode": "0x6080604081905260008054600160a060020a0319163317808255600160a060020a0316917f8be0079c531659141344cd1fd0a4f28419497f9722a3daafe3b4186f6b6457e0908290a36110b5806100576000396000f3fe6080604052600436106100ae5763ffffffff7c0100000000000000000000000000000000000000000000000000000000600035041663204dd52d81146100b3578063243e280b146100e45780632b6f721214610199578063350d94d4146101e0578063715018a614610293578063721724ed146102a857806386af20e3146102db5780638da5cb5b146103905780638f32d59b146103a5578063df079473146103ba578063f2fde38b146104fb575b600080fd5b3480156100bf57600080fd5b506100c861052e565b60408051600160a060020a039092168252519081900360200190f35b3480156100f057600080fd5b506101976004803603602081101561010757600080fd5b81019060208101813564010000000081111561012257600080fd5b82018360208201111561013457600080fd5b8035906020019184600183028401116401000000008311171561015657600080fd5b91908080601f01602080910402602001604051908101604052809392919081815260200183838082843760009201919091525092955061053d945050505050565b005b3480156101a557600080fd5b506101cc600480360360208110156101bc57600080fd5b5035600160a060020a0316610807565b604080519115158252519081900360200190f35b3480156101ec57600080fd5b506100c86004803603602081101561020357600080fd5b81019060208101813564010000000081111561021e57600080fd5b82018360208201111561023057600080fd5b8035906020019184600183028401116401000000008311171561025257600080fd5b91908080601f016020809104026020016040519081016040528093929190818152602001838380828437600092019190915250929550610825945050505050565b34801561029f57600080fd5b50610197610896565b3480156102b457600080fd5b50610197600480360360208110156102cb57600080fd5b5035600160a060020a031661094b565b3480156102e757600080fd5b50610197600480360360408110156102fe57600080fd5b81019060208101813564010000000081111561031957600080fd5b82018360208201111561032b57600080fd5b8035906020019184600183028401116401000000008311171561034d57600080fd5b91908080601f01602080910402602001604051908101604052809392919081815260200183838082843760009201919091525092955050913592506109d8915050565b34801561039c57600080fd5b506100c8610d00565b3480156103b157600080fd5b506101cc610d10565b3480156103c657600080fd5b5061046d600480360360208110156103dd57600080fd5b8101906020810181356401000000008111156103f857600080fd5b82018360208201111561040a57600080fd5b8035906020019184600183028401116401000000008311171561042c57600080fd5b91908080601f016020809104026020016040519081016040528093929190818152602001838380828437600092019190915250929550610d21945050505050565b60408051600160a060020a0385168152908101829052606060208083018281528551928401929092528451608084019186019080838360005b838110156104be5781810151838201526020016104a6565b50505050905090810190601f1680156104eb5780820380516001836020036101000a031916815260200191505b5094505050505060405180910390f35b34801561050757600080fd5b506101976004803603602081101561051e57600080fd5b5035600160a060020a0316610e61565b600254600160a060020a031681565b6105476001610ecb565b60006105536001610ed4565b600254604080517f40c10f19000000000000000000000000000000000000000000000000000000008152336004820152602481018490529051929350600160a060020a03909116916340c10f19916044808201926020929091908290030181600087803b1580156105c357600080fd5b505af11580156105d7573d6000803e3d6000fd5b505050506040513d60208110156105ed57600080fd5b505033600081815260036020908152604091829020805460ff1916600190811790915582516060810184529384528382018690528383018190529151855192939260049287929182918401908083835b6020831061065c5780518252601f19909201916020918201910161063d565b51815160209384036101000a60001901801990921691161790529201948552506040519384900381019093208451815473ffffffffffffffffffffffffffffffffffffffff1916600160a060020a0390911617815584840151805191946106cb94506001860193500190610fc6565b506040820151816002015590505060016004846040518082805190602001908083835b6020831061070d5780518252601f1990920191602091820191016106ee565b51815160209384036101000a6000190180199092169116179052920194855250604080519485900382018520336000818152600390920184528282208a83528452828220805460ff1916981515989098179097558886528583018281528a519287019290925289517fdc2d28071e9640439771c91251dfd2506e94c84bdc4d7c29f25d7eb835d75503968a96508b955093606085019290860191908190849084905b838110156107c75781810151838201526020016107af565b50505050905090810190601f1680156107f45780820380516001836020036101000a031916815260200191505b50935050505060405180910390a2505050565b600160a060020a031660009081526003602052604090205460ff1690565b60006004826040518082805190602001908083835b602083106108595780518252601f19909201916020918201910161083a565b51815160209384036101000a6000190180199092169116179052920194855250604051938490030190922054600160a060020a0316949350505050565b61089e610d10565b15156108f4576040805160e560020a62461bcd02815260206004820181905260248201527f4f776e61626c653a2063616c6c6572206973206e6f7420746865206f776e6572604482015290519081900360640190fd5b60008054604051600160a060020a03909116907f8be0079c531659141344cd1fd0a4f28419497f9722a3daafe3b4186f6b6457e0908390a36000805473ffffffffffffffffffffffffffffffffffffffff19169055565b610953610d10565b15156109a9576040805160e560020a62461bcd02815260206004820181905260248201527f4f776e61626c653a2063616c6c6572206973206e6f7420746865206f776e6572604482015290519081900360640190fd5b6002805473ffffffffffffffffffffffffffffffffffffffff1916600160a060020a0392909216919091179055565b6004826040518082805190602001908083835b60208310610a0a5780518252601f1990920191602091820191016109eb565b51815160209384036101000a60001901801990921691161790529201948552506040805194859003820190942033600090815260039091018252848120868252909152929092205460ff16159150610a63905057600080fd5b600254604080517f9a957be8000000000000000000000000000000000000000000000000000000008152600481018490529051600092600160a060020a031691639a957be8916024808301926020929190829003018186803b158015610ac857600080fd5b505afa158015610adc573d6000803e3d6000fd5b505050506040513d6020811015610af257600080fd5b5051604051845191925082916004918691819060208401908083835b60208310610b2d5780518252601f199092019160209182019101610b0e565b51815160209384036101000a60001901801990921691161790529201948552506040519384900381018420600290810180549690960190955593548751600160a060020a03909116946342842e0e9433945060049350899290918291908401908083835b60208310610bb05780518252601f199092019160209182019101610b91565b51815160209384036101000a6000190180199092169116179052920194855250604080519485900390910184205463ffffffff87167c0100000000000000000000000000000000000000000000000000000000028552600160a060020a0395861660048601529490941660248401525050604481018690529051606480830192600092919082900301818387803b158015610c4a57600080fd5b505af1158015610c5e573d6000803e3d6000fd5b505060408051602080825287518183015287513395507fcb6783276e8a4347387036bbfea000268f0a4b1f8c46ac79980609f2af8d2acd945088938392908301919085019080838360005b83811015610cc1578181015183820152602001610ca9565b50505050905090810190601f168015610cee5780820380516001836020036101000a031916815260200191505b509250505060405180910390a2505050565b600054600160a060020a03165b90565b600054600160a060020a0316331490565b600060606000610d2f611044565b6004856040518082805190602001908083835b60208310610d615780518252601f199092019160209182019101610d42565b518151602093840361010090810a60001990810180199094169390921692909217909252929094019687526040805197889003820188206060890182528054600160a060020a0316895260018082018054845160029382161590970290980190971604601f81018490048402850184019092528184529650878201955091939250830182828015610e335780601f10610e0857610100808354040283529160200191610e33565b820191906000526020600020905b815481529060010190602001808311610e1657829003601f168201915b5050509183525050600291909101546020918201528151908201516040909201519097919650945092505050565b610e69610d10565b1515610ebf576040805160e560020a62461bcd02815260206004820181905260248201527f4f776e61626c653a2063616c6c6572206973206e6f7420746865206f776e6572604482015290519081900360640190fd5b610ec881610ed8565b50565b80546001019055565b5490565b600160a060020a0381161515610f5e576040805160e560020a62461bcd02815260206004820152602660248201527f4f776e61626c653a206e6577206f776e657220697320746865207a65726f206160448201527f6464726573730000000000000000000000000000000000000000000000000000606482015290519081900360840190fd5b60008054604051600160a060020a03808516939216917f8be0079c531659141344cd1fd0a4f28419497f9722a3daafe3b4186f6b6457e091a36000805473ffffffffffffffffffffffffffffffffffffffff1916600160a060020a0392909216919091179055565b828054600181600116156101000203166002900490600052602060002090601f016020900481019282601f1061100757805160ff1916838001178555611034565b82800160010185558215611034579182015b82811115611034578251825591602001919060010190611019565b5061104092915061106f565b5090565b6060604051908101604052806000600160a060020a0316815260200160608152602001600081525090565b610d0d91905b80821115611040576000815560010161107556fea165627a7a72305820da3e63f283fc2ef2af907076723ba17ad1930702519ed495f96c349287a763010029",
  "source": "pragma solidity ^0.5.0;\n\nimport \"@openzeppelin/contracts/drafts/Counters.sol\";\nimport \"@openzeppelin/contracts/ownership/Ownable.sol\";\n\nimport \"./NoveltyCoin.sol\";\n\ncontract Publisher is Ownable {\n    using Counters for Counters.Counter;\n\n    /*** Events ***/\n    event PaperPublished(address indexed author, uint256 tokenId, string contentHash);\n    event Voted(address indexed voter, string _paperHash);\n\n    /*** DATA TYPES ***/\n\n    Counters.Counter private _tokenIds;\n\n    NoveltyCoin public noveltyCoin;\n\n    struct Paper {\n        address author;\n        string contentHash;\n        uint256 votesInWeight;\n        // Track if a token from a address has already voted on the paper.\n        mapping(address => mapping(uint256 => bool)) hasVoted;\n    }\n\n    mapping(address => bool) userHasPublished;\n    mapping(string => Paper) papers;\n    \n    function getPaper(string memory _contentHash) public view returns (address author, string memory contentHash, uint256 voteWeight){\n        Paper memory p = papers[_contentHash];\n        return  (p.author, p.contentHash, p.votesInWeight);\n    }\n    \n    function publish(string memory _contentHash) public {\n        _tokenIds.increment();\n        \n        uint256 newTokenId = _tokenIds.current();\n\n        // Only this contract (Publisher) can mint tokens\n        // by calling NoveltyCoin.addMinter() with the contracts\n        // address from the owner address.\n        noveltyCoin.mint(msg.sender, newTokenId);\n\n        uint8 newVoteWeight = 1 * 1; // basevalue * weight\n        userHasPublished[msg.sender] = true;\n\n        papers[_contentHash] = Paper({\n            author: msg.sender,\n            contentHash: _contentHash,\n            votesInWeight: newVoteWeight\n        });\n\n        papers[_contentHash].hasVoted[msg.sender][newTokenId] = true;\n        emit PaperPublished(msg.sender, newTokenId, _contentHash);\n    }\n\n    function addVote(string memory _contentHash, uint256 tokenId) public {\n        // Make sure the same token is not used twice on the same paper.\n        require(papers[_contentHash].hasVoted[msg.sender][tokenId] == false);\n\n        uint256 weight = noveltyCoin.getVoteWeights(tokenId);\n        papers[_contentHash].votesInWeight += weight;\n\n        noveltyCoin.safeTransferFrom(msg.sender,\n                                  papers[_contentHash].author,\n                                  tokenId);\n\n        emit Voted(msg.sender, _contentHash);\n    }\n\n    function getAuthor(string memory _contentHash) public view returns (address) {\n        return papers[_contentHash].author;\n    }\n\n    function hasPublishedPapers(address user) public view returns (bool) {\n        return userHasPublished[user];\n    }\n\n    function setNoveltyCoin(address _contractAddress) public onlyOwner {\n        noveltyCoin = NoveltyCoin(_contractAddress);\n    }\n}\n\n\n",
  "sourcePath": "/home/shalzz/dev/ethereum/papercoin/contracts/Publisher.sol",
  "compiler": {
    "name": "solc",
    "version": "0.5.0+commit.1d4f565a.Emscripten.clang"
  },
  "schemaVersion": "3.0.11",
  "updatedAt": "2019-08-04T00:48:53.439Z",
  "devdoc": {
    "methods": {
      "isOwner()": {
        "details": "Returns true if the caller is the current owner."
      },
      "owner()": {
        "details": "Returns the address of the current owner."
      },
      "renounceOwnership()": {
        "details": "Leaves the contract without owner. It will not be possible to call `onlyOwner` functions anymore. Can only be called by the current owner.     * > Note: Renouncing ownership will leave the contract without an owner, thereby removing any functionality that is only available to the owner."
      },
      "transferOwnership(address)": {
        "details": "Transfers ownership of the contract to a new account (`newOwner`). Can only be called by the current owner."
      }
    }
  },
  "userdoc": {
    "methods": {}
  }
}