{
  "contractName": "Publisher",
  "abi": [
    {
      "constant": true,
      "inputs": [],
      "name": "voteCoin",
      "outputs": [
        {
          "name": "",
          "type": "address"
        }
      ],
      "payable": false,
      "stateMutability": "view",
      "type": "function",
      "signature": "0x19209e9d"
    },
    {
      "constant": false,
      "inputs": [],
      "name": "renounceOwnership",
      "outputs": [],
      "payable": false,
      "stateMutability": "nonpayable",
      "type": "function",
      "signature": "0x715018a6"
    },
    {
      "constant": true,
      "inputs": [],
      "name": "owner",
      "outputs": [
        {
          "name": "",
          "type": "address"
        }
      ],
      "payable": false,
      "stateMutability": "view",
      "type": "function",
      "signature": "0x8da5cb5b"
    },
    {
      "constant": true,
      "inputs": [],
      "name": "isOwner",
      "outputs": [
        {
          "name": "",
          "type": "bool"
        }
      ],
      "payable": false,
      "stateMutability": "view",
      "type": "function",
      "signature": "0x8f32d59b"
    },
    {
      "constant": false,
      "inputs": [
        {
          "name": "newOwner",
          "type": "address"
        }
      ],
      "name": "transferOwnership",
      "outputs": [],
      "payable": false,
      "stateMutability": "nonpayable",
      "type": "function",
      "signature": "0xf2fde38b"
    },
    {
      "anonymous": false,
      "inputs": [
        {
          "indexed": true,
          "name": "author",
          "type": "address"
        },
        {
          "indexed": false,
          "name": "contentHash",
          "type": "uint256"
        }
      ],
      "name": "PaperPublished",
      "type": "event",
      "signature": "0xdc1252ea00b8705b496770ad21c82751bc18fd164f57da672863ca80823d1f52"
    },
    {
      "anonymous": false,
      "inputs": [
        {
          "indexed": true,
          "name": "previousOwner",
          "type": "address"
        },
        {
          "indexed": true,
          "name": "newOwner",
          "type": "address"
        }
      ],
      "name": "OwnershipTransferred",
      "type": "event",
      "signature": "0x8be0079c531659141344cd1fd0a4f28419497f9722a3daafe3b4186f6b6457e0"
    },
    {
      "constant": false,
      "inputs": [
        {
          "name": "_contentHash",
          "type": "string"
        }
      ],
      "name": "Publish",
      "outputs": [],
      "payable": false,
      "stateMutability": "nonpayable",
      "type": "function",
      "signature": "0x72d2186f"
    },
    {
      "constant": false,
      "inputs": [
        {
          "name": "_contentHash",
          "type": "string"
        },
        {
          "name": "tokenId",
          "type": "uint256"
        }
      ],
      "name": "addVote",
      "outputs": [],
      "payable": false,
      "stateMutability": "nonpayable",
      "type": "function",
      "signature": "0x86af20e3"
    },
    {
      "constant": true,
      "inputs": [
        {
          "name": "_contentHash",
          "type": "string"
        }
      ],
      "name": "getAuthor",
      "outputs": [
        {
          "name": "",
          "type": "address"
        }
      ],
      "payable": false,
      "stateMutability": "view",
      "type": "function",
      "signature": "0x350d94d4"
    },
    {
      "constant": true,
      "inputs": [
        {
          "name": "user",
          "type": "address"
        }
      ],
      "name": "hasPublishedPapers",
      "outputs": [
        {
          "name": "",
          "type": "bool"
        }
      ],
      "payable": false,
      "stateMutability": "view",
      "type": "function",
      "signature": "0x2b6f7212"
    },
    {
      "constant": false,
      "inputs": [
        {
          "name": "_contractAddress",
          "type": "address"
        }
      ],
      "name": "setVoteCoin",
      "outputs": [],
      "payable": false,
      "stateMutability": "nonpayable",
      "type": "function",
      "signature": "0x54906880"
    }
  ],
  "bytecode": "0x6080604052336000806101000a81548173ffffffffffffffffffffffffffffffffffffffff021916908373ffffffffffffffffffffffffffffffffffffffff1602179055506000809054906101000a900473ffffffffffffffffffffffffffffffffffffffff1673ffffffffffffffffffffffffffffffffffffffff16600073ffffffffffffffffffffffffffffffffffffffff167f8be0079c531659141344cd1fd0a4f28419497f9722a3daafe3b4186f6b6457e060405160405180910390a3611363806100cf6000396000f3fe6080604052600436106100a4576000357c0100000000000000000000000000000000000000000000000000000000900463ffffffff16806319209e9d146100a95780632b6f721214610100578063350d94d4146101695780635490688014610271578063715018a6146102c257806372d2186f146102d957806386af20e3146103a15780638da5cb5b146104735780638f32d59b146104ca578063f2fde38b146104f9575b600080fd5b3480156100b557600080fd5b506100be61054a565b604051808273ffffffffffffffffffffffffffffffffffffffff1673ffffffffffffffffffffffffffffffffffffffff16815260200191505060405180910390f35b34801561010c57600080fd5b5061014f6004803603602081101561012357600080fd5b81019080803573ffffffffffffffffffffffffffffffffffffffff169060200190929190505050610570565b604051808215151515815260200191505060405180910390f35b34801561017557600080fd5b5061022f6004803603602081101561018c57600080fd5b81019080803590602001906401000000008111156101a957600080fd5b8201836020820111156101bb57600080fd5b803590602001918460018302840111640100000000831117156101dd57600080fd5b91908080601f016020809104026020016040519081016040528093929190818152602001838380828437600081840152601f19601f8201169050808301925050505050505091929192905050506105c6565b604051808273ffffffffffffffffffffffffffffffffffffffff1673ffffffffffffffffffffffffffffffffffffffff16815260200191505060405180910390f35b34801561027d57600080fd5b506102c06004803603602081101561029457600080fd5b81019080803573ffffffffffffffffffffffffffffffffffffffff16906020019092919050505061065e565b005b3480156102ce57600080fd5b506102d761071e565b005b3480156102e557600080fd5b5061039f600480360360208110156102fc57600080fd5b810190808035906020019064010000000081111561031957600080fd5b82018360208201111561032b57600080fd5b8035906020019184600183028401116401000000008311171561034d57600080fd5b91908080601f016020809104026020016040519081016040528093929190818152602001838380828437600081840152601f19601f820116905080830192505050505050509192919290505050610859565b005b3480156103ad57600080fd5b50610471600480360360408110156103c457600080fd5b81019080803590602001906401000000008111156103e157600080fd5b8201836020820111156103f357600080fd5b8035906020019184600183028401116401000000008311171561041557600080fd5b91908080601f016020809104026020016040519081016040528093929190818152602001838380828437600081840152601f19601f82011690508083019250505050505050919291929080359060200190929190505050610c13565b005b34801561047f57600080fd5b50610488610fdd565b604051808273ffffffffffffffffffffffffffffffffffffffff1673ffffffffffffffffffffffffffffffffffffffff16815260200191505060405180910390f35b3480156104d657600080fd5b506104df611006565b604051808215151515815260200191505060405180910390f35b34801561050557600080fd5b506105486004803603602081101561051c57600080fd5b81019080803573ffffffffffffffffffffffffffffffffffffffff16906020019092919050505061105d565b005b600260009054906101000a900473ffffffffffffffffffffffffffffffffffffffff1681565b6000600360008373ffffffffffffffffffffffffffffffffffffffff1673ffffffffffffffffffffffffffffffffffffffff16815260200190815260200160002060009054906101000a900460ff169050919050565b60006004826040518082805190602001908083835b60208310151561060057805182526020820191506020810190506020830392506105db565b6001836020036101000a038019825116818451168082178552505050505050905001915050908152602001604051809103902060000160009054906101000a900473ffffffffffffffffffffffffffffffffffffffff169050919050565b610666611006565b15156106da576040517f08c379a00000000000000000000000000000000000000000000000000000000081526004018080602001828103825260208152602001807f4f776e61626c653a2063616c6c6572206973206e6f7420746865206f776e657281525060200191505060405180910390fd5b80600260006101000a81548173ffffffffffffffffffffffffffffffffffffffff021916908373ffffffffffffffffffffffffffffffffffffffff16021790555050565b610726611006565b151561079a576040517f08c379a00000000000000000000000000000000000000000000000000000000081526004018080602001828103825260208152602001807f4f776e61626c653a2063616c6c6572206973206e6f7420746865206f776e657281525060200191505060405180910390fd5b600073ffffffffffffffffffffffffffffffffffffffff166000809054906101000a900473ffffffffffffffffffffffffffffffffffffffff1673ffffffffffffffffffffffffffffffffffffffff167f8be0079c531659141344cd1fd0a4f28419497f9722a3daafe3b4186f6b6457e060405160405180910390a360008060006101000a81548173ffffffffffffffffffffffffffffffffffffffff021916908373ffffffffffffffffffffffffffffffffffffffff160217905550565b61086360016110e5565b600061086f60016110fb565b9050600260009054906101000a900473ffffffffffffffffffffffffffffffffffffffff1673ffffffffffffffffffffffffffffffffffffffff166340c10f1933836040518363ffffffff167c0100000000000000000000000000000000000000000000000000000000028152600401808373ffffffffffffffffffffffffffffffffffffffff1673ffffffffffffffffffffffffffffffffffffffff16815260200182815260200192505050602060405180830381600087803b15801561093657600080fd5b505af115801561094a573d6000803e3d6000fd5b505050506040513d602081101561096057600080fd5b8101908080519060200190929190505050151561097c57600080fd5b6000600190506001600360003373ffffffffffffffffffffffffffffffffffffffff1673ffffffffffffffffffffffffffffffffffffffff16815260200190815260200160002060006101000a81548160ff0219169083151502179055506060604051908101604052803373ffffffffffffffffffffffffffffffffffffffff1681526020018481526020018260ff168152506004846040518082805190602001908083835b602083101515610a475780518252602082019150602081019050602083039250610a22565b6001836020036101000a038019825116818451168082178552505050505050905001915050908152602001604051809103902060008201518160000160006101000a81548173ffffffffffffffffffffffffffffffffffffffff021916908373ffffffffffffffffffffffffffffffffffffffff1602179055506020820151816001019080519060200190610add929190611292565b506040820151816002015590505060016004846040518082805190602001908083835b602083101515610b255780518252602082019150602081019050602083039250610b00565b6001836020036101000a038019825116818451168082178552505050505050905001915050908152602001604051809103902060030160003373ffffffffffffffffffffffffffffffffffffffff1673ffffffffffffffffffffffffffffffffffffffff168152602001908152602001600020600084815260200190815260200160002060006101000a81548160ff0219169083151502179055503373ffffffffffffffffffffffffffffffffffffffff167fdc1252ea00b8705b496770ad21c82751bc18fd164f57da672863ca80823d1f52836040518082815260200191505060405180910390a2505050565b600015156004836040518082805190602001908083835b602083101515610c4f5780518252602082019150602081019050602083039250610c2a565b6001836020036101000a038019825116818451168082178552505050505050905001915050908152602001604051809103902060030160003373ffffffffffffffffffffffffffffffffffffffff1673ffffffffffffffffffffffffffffffffffffffff168152602001908152602001600020600083815260200190815260200160002060009054906101000a900460ff161515141515610cef57600080fd5b6000600260009054906101000a900473ffffffffffffffffffffffffffffffffffffffff1673ffffffffffffffffffffffffffffffffffffffff16639a957be8836040518263ffffffff167c01000000000000000000000000000000000000000000000000000000000281526004018082815260200191505060206040518083038186803b158015610d8057600080fd5b505afa158015610d94573d6000803e3d6000fd5b505050506040513d6020811015610daa57600080fd5b81019080805190602001909291905050509050806004846040518082805190602001908083835b602083101515610df65780518252602082019150602081019050602083039250610dd1565b6001836020036101000a038019825116818451168082178552505050505050905001915050908152602001604051809103902060020160008282540192505081905550600260009054906101000a900473ffffffffffffffffffffffffffffffffffffffff1673ffffffffffffffffffffffffffffffffffffffff166342842e0e306004866040518082805190602001908083835b602083101515610eb05780518252602082019150602081019050602083039250610e8b565b6001836020036101000a038019825116818451168082178552505050505050905001915050908152602001604051809103902060000160009054906101000a900473ffffffffffffffffffffffffffffffffffffffff16856040518463ffffffff167c0100000000000000000000000000000000000000000000000000000000028152600401808473ffffffffffffffffffffffffffffffffffffffff1673ffffffffffffffffffffffffffffffffffffffff1681526020018373ffffffffffffffffffffffffffffffffffffffff1673ffffffffffffffffffffffffffffffffffffffff1681526020018281526020019350505050600060405180830381600087803b158015610fc057600080fd5b505af1158015610fd4573d6000803e3d6000fd5b50505050505050565b60008060009054906101000a900473ffffffffffffffffffffffffffffffffffffffff16905090565b60008060009054906101000a900473ffffffffffffffffffffffffffffffffffffffff1673ffffffffffffffffffffffffffffffffffffffff163373ffffffffffffffffffffffffffffffffffffffff1614905090565b611065611006565b15156110d9576040517f08c379a00000000000000000000000000000000000000000000000000000000081526004018080602001828103825260208152602001807f4f776e61626c653a2063616c6c6572206973206e6f7420746865206f776e657281525060200191505060405180910390fd5b6110e281611109565b50565b6001816000016000828254019250508190555050565b600081600001549050919050565b600073ffffffffffffffffffffffffffffffffffffffff168173ffffffffffffffffffffffffffffffffffffffff16141515156111d4576040517f08c379a00000000000000000000000000000000000000000000000000000000081526004018080602001828103825260268152602001807f4f776e61626c653a206e6577206f776e657220697320746865207a65726f206181526020017f646472657373000000000000000000000000000000000000000000000000000081525060400191505060405180910390fd5b8073ffffffffffffffffffffffffffffffffffffffff166000809054906101000a900473ffffffffffffffffffffffffffffffffffffffff1673ffffffffffffffffffffffffffffffffffffffff167f8be0079c531659141344cd1fd0a4f28419497f9722a3daafe3b4186f6b6457e060405160405180910390a3806000806101000a81548173ffffffffffffffffffffffffffffffffffffffff021916908373ffffffffffffffffffffffffffffffffffffffff16021790555050565b828054600181600116156101000203166002900490600052602060002090601f016020900481019282601f106112d357805160ff1916838001178555611301565b82800160010185558215611301579182015b828111156113005782518255916020019190600101906112e5565b5b50905061130e9190611312565b5090565b61133491905b80821115611330576000816000905550600101611318565b5090565b9056fea165627a7a723058206d16f5454c8e255f8cfdbbc9bfd6900b09dd18d1371adcfb2cc4ffc06e4627070029",
  "source": "pragma solidity ^0.5.0;\n\nimport \"@openzeppelin/contracts/drafts/Counters.sol\";\nimport \"@openzeppelin/contracts/ownership/Ownable.sol\";\n\nimport \"./VoteCoin.sol\";\n\ncontract Publisher is Ownable {\n    using Counters for Counters.Counter;\n\n    /*** Events ***/\n    event PaperPublished(address indexed author, uint256 contentHash);\n\n    /*** DATA TYPES ***/\n\n    Counters.Counter private _tokenIds;\n\n    VoteCoin public voteCoin;\n\n    struct Paper {\n        address author;\n        string contentHash;\n        uint256 votesInWeight;\n        // Track if a token from a address has already voted on the paper.\n        mapping(address => mapping(uint256 => bool)) hasVoted;\n    }\n\n    mapping(address => bool) userHasPublished;\n    mapping(string => Paper) papers;\n\n    function Publish(string memory _contentHash) public {\n        _tokenIds.increment();\n        uint256 newTokenId = _tokenIds.current();\n        require(voteCoin.mint(msg.sender, newTokenId));\n        uint8 newVoteWeight = 1 * 1; // basevalue * weight\n\n        userHasPublished[msg.sender] = true;\n\n        papers[_contentHash] = Paper({\n            author: msg.sender,\n            contentHash: _contentHash,\n            votesInWeight: newVoteWeight\n        });\n\n        papers[_contentHash].hasVoted[msg.sender][newTokenId] = true;\n        emit PaperPublished(msg.sender, newTokenId);\n    }\n\n    function addVote(string memory _contentHash, uint256 tokenId) public {\n        // Make sure the same token is not used twice on the same paper.\n        require(papers[_contentHash].hasVoted[msg.sender][tokenId] == false);\n\n        uint256 weight = voteCoin.getVoteWeights(tokenId);\n        papers[_contentHash].votesInWeight += weight; \n\n        voteCoin.safeTransferFrom(address(this),\n                                  papers[_contentHash].author,\n                                  tokenId);\n    }\n\n    function addVotes(string memory _contentHash, uint256 weight) internal {\n    }\n\n    function getAuthor(string memory _contentHash) public view returns (address) {\n        return papers[_contentHash].author;\n    }\n\n    function hasPublishedPapers(address user) public view returns (bool) {\n        return userHasPublished[user];\n    }\n\n    function setVoteCoin(address _contractAddress) public onlyOwner {\n        voteCoin = VoteCoin(_contractAddress);\n    }\n}\n\n\n",
  "sourcePath": "/Users/seven/Documents/ethindia/papercoin/contracts/Publisher.sol",
  "compiler": {
    "name": "solc",
    "version": "0.5.0+commit.1d4f565a.Emscripten.clang"
  },
  "schemaVersion": "3.0.1",
  "updatedAt": "2019-08-03T13:14:53.328Z",
  "devdoc": {
    "methods": {
      "isOwner()": {
        "details": "Returns true if the caller is the current owner."
      },
      "owner()": {
        "details": "Returns the address of the current owner."
      },
      "renounceOwnership()": {
        "details": "Leaves the contract without owner. It will not be possible to call `onlyOwner` functions anymore. Can only be called by the current owner.     * > Note: Renouncing ownership will leave the contract without an owner, thereby removing any functionality that is only available to the owner."
      },
      "transferOwnership(address)": {
        "details": "Transfers ownership of the contract to a new account (`newOwner`). Can only be called by the current owner."
      }
    }
  },
  "userdoc": {
    "methods": {}
  }
}